{
  "contractName": "Auth",
  "abi": [
    {
      "inputs": [
        {
          "internalType": "address",
          "name": "deployer",
          "type": "address"
        }
      ],
      "stateMutability": "nonpayable",
      "type": "constructor"
    },
    {
      "inputs": [
        {
          "internalType": "address",
          "name": "user",
          "type": "address"
        }
      ],
      "name": "isAdministrator",
      "outputs": [
        {
          "internalType": "bool",
          "name": "",
          "type": "bool"
        }
      ],
      "stateMutability": "view",
      "type": "function"
    }
  ],
  "bytecode": "0x608060405234801561001057600080fd5b5060405161015638038061015683398101604081905261002f91610054565b600080546001600160a01b0319166001600160a01b0392909216919091179055610084565b60006020828403121561006657600080fd5b81516001600160a01b038116811461007d57600080fd5b9392505050565b60c4806100926000396000f3fe6080604052348015600f57600080fd5b506004361060285760003560e01c80630a2eb30114602d575b600080fd5b604c60383660046060565b6000546001600160a01b0391821691161490565b604051901515815260200160405180910390f35b600060208284031215607157600080fd5b81356001600160a01b0381168114608757600080fd5b939250505056fea26469706673582212209a9cd043e08f3316e326d119ff3f89f6fbf524b87f3a3ee135579a189ab8628564736f6c634300080e0033",
  "immutableReferences": {},
  "source": "// SPDX-License-Identifier: MIT\r\npragma solidity ^0.8.0;\r\n\r\ncontract Auth {\r\n    address private _administrator;\r\n\r\n    constructor(address deployer) {\r\n        // Make the deployer of the contract the administrator\r\n        _administrator = deployer;\r\n    }\r\n\r\n    function isAdministrator(address user) public view returns (bool) {\r\n        return user == _administrator;\r\n    }\r\n}",
  "sourcePath": "D:\\Projects\\Solidity\\src\\contracts\\access-control\\Auth.sol",
  "compiler": {
    "name": "solc",
    "version": "0.8.14+commit.80d49f37.Emscripten.clang"
  },
  "schemaVersion": "3.4.6",
  "updatedAt": "2022-06-06T09:12:23.961Z",
  "devdoc": {
    "kind": "dev",
    "methods": {},
    "version": 1
  },
  "userdoc": {
    "kind": "user",
    "methods": {},
    "version": 1
  }
}