{
  "contractName": "NFTMarketplace",
  "abi": [
    {
      "inputs": [],
      "stateMutability": "nonpayable",
      "type": "constructor"
    },
    {
      "anonymous": false,
      "inputs": [
        {
          "indexed": true,
          "internalType": "address",
          "name": "owner",
          "type": "address"
        },
        {
          "indexed": true,
          "internalType": "address",
          "name": "approved",
          "type": "address"
        },
        {
          "indexed": true,
          "internalType": "uint256",
          "name": "tokenId",
          "type": "uint256"
        }
      ],
      "name": "Approval",
      "type": "event"
    },
    {
      "anonymous": false,
      "inputs": [
        {
          "indexed": true,
          "internalType": "address",
          "name": "owner",
          "type": "address"
        },
        {
          "indexed": true,
          "internalType": "address",
          "name": "operator",
          "type": "address"
        },
        {
          "indexed": false,
          "internalType": "bool",
          "name": "approved",
          "type": "bool"
        }
      ],
      "name": "ApprovalForAll",
      "type": "event"
    },
    {
      "anonymous": false,
      "inputs": [
        {
          "indexed": true,
          "internalType": "uint256",
          "name": "tokenId",
          "type": "uint256"
        },
        {
          "indexed": false,
          "internalType": "address",
          "name": "seller",
          "type": "address"
        },
        {
          "indexed": false,
          "internalType": "address",
          "name": "owner",
          "type": "address"
        },
        {
          "indexed": false,
          "internalType": "uint256",
          "name": "price",
          "type": "uint256"
        },
        {
          "indexed": false,
          "internalType": "bool",
          "name": "sold",
          "type": "bool"
        }
      ],
      "name": "MarketItemCreated",
      "type": "event"
    },
    {
      "anonymous": false,
      "inputs": [
        {
          "indexed": true,
          "internalType": "address",
          "name": "from",
          "type": "address"
        },
        {
          "indexed": true,
          "internalType": "address",
          "name": "to",
          "type": "address"
        },
        {
          "indexed": true,
          "internalType": "uint256",
          "name": "tokenId",
          "type": "uint256"
        }
      ],
      "name": "Transfer",
      "type": "event"
    },
    {
      "inputs": [
        {
          "internalType": "address",
          "name": "to",
          "type": "address"
        },
        {
          "internalType": "uint256",
          "name": "tokenId",
          "type": "uint256"
        }
      ],
      "name": "approve",
      "outputs": [],
      "stateMutability": "nonpayable",
      "type": "function"
    },
    {
      "inputs": [
        {
          "internalType": "address",
          "name": "owner",
          "type": "address"
        }
      ],
      "name": "balanceOf",
      "outputs": [
        {
          "internalType": "uint256",
          "name": "",
          "type": "uint256"
        }
      ],
      "stateMutability": "view",
      "type": "function",
      "constant": true
    },
    {
      "inputs": [
        {
          "internalType": "uint256",
          "name": "tokenId",
          "type": "uint256"
        }
      ],
      "name": "getApproved",
      "outputs": [
        {
          "internalType": "address",
          "name": "",
          "type": "address"
        }
      ],
      "stateMutability": "view",
      "type": "function",
      "constant": true
    },
    {
      "inputs": [
        {
          "internalType": "address",
          "name": "owner",
          "type": "address"
        },
        {
          "internalType": "address",
          "name": "operator",
          "type": "address"
        }
      ],
      "name": "isApprovedForAll",
      "outputs": [
        {
          "internalType": "bool",
          "name": "",
          "type": "bool"
        }
      ],
      "stateMutability": "view",
      "type": "function",
      "constant": true
    },
    {
      "inputs": [],
      "name": "name",
      "outputs": [
        {
          "internalType": "string",
          "name": "",
          "type": "string"
        }
      ],
      "stateMutability": "view",
      "type": "function",
      "constant": true
    },
    {
      "inputs": [
        {
          "internalType": "uint256",
          "name": "tokenId",
          "type": "uint256"
        }
      ],
      "name": "ownerOf",
      "outputs": [
        {
          "internalType": "address",
          "name": "",
          "type": "address"
        }
      ],
      "stateMutability": "view",
      "type": "function",
      "constant": true
    },
    {
      "inputs": [
        {
          "internalType": "address",
          "name": "from",
          "type": "address"
        },
        {
          "internalType": "address",
          "name": "to",
          "type": "address"
        },
        {
          "internalType": "uint256",
          "name": "tokenId",
          "type": "uint256"
        }
      ],
      "name": "safeTransferFrom",
      "outputs": [],
      "stateMutability": "nonpayable",
      "type": "function"
    },
    {
      "inputs": [
        {
          "internalType": "address",
          "name": "from",
          "type": "address"
        },
        {
          "internalType": "address",
          "name": "to",
          "type": "address"
        },
        {
          "internalType": "uint256",
          "name": "tokenId",
          "type": "uint256"
        },
        {
          "internalType": "bytes",
          "name": "_data",
          "type": "bytes"
        }
      ],
      "name": "safeTransferFrom",
      "outputs": [],
      "stateMutability": "nonpayable",
      "type": "function"
    },
    {
      "inputs": [
        {
          "internalType": "address",
          "name": "operator",
          "type": "address"
        },
        {
          "internalType": "bool",
          "name": "approved",
          "type": "bool"
        }
      ],
      "name": "setApprovalForAll",
      "outputs": [],
      "stateMutability": "nonpayable",
      "type": "function"
    },
    {
      "inputs": [
        {
          "internalType": "bytes4",
          "name": "interfaceId",
          "type": "bytes4"
        }
      ],
      "name": "supportsInterface",
      "outputs": [
        {
          "internalType": "bool",
          "name": "",
          "type": "bool"
        }
      ],
      "stateMutability": "view",
      "type": "function",
      "constant": true
    },
    {
      "inputs": [],
      "name": "symbol",
      "outputs": [
        {
          "internalType": "string",
          "name": "",
          "type": "string"
        }
      ],
      "stateMutability": "view",
      "type": "function",
      "constant": true
    },
    {
      "inputs": [
        {
          "internalType": "uint256",
          "name": "tokenId",
          "type": "uint256"
        }
      ],
      "name": "tokenURI",
      "outputs": [
        {
          "internalType": "string",
          "name": "",
          "type": "string"
        }
      ],
      "stateMutability": "view",
      "type": "function",
      "constant": true
    },
    {
      "inputs": [
        {
          "internalType": "address",
          "name": "from",
          "type": "address"
        },
        {
          "internalType": "address",
          "name": "to",
          "type": "address"
        },
        {
          "internalType": "uint256",
          "name": "tokenId",
          "type": "uint256"
        }
      ],
      "name": "transferFrom",
      "outputs": [],
      "stateMutability": "nonpayable",
      "type": "function"
    },
    {
      "inputs": [
        {
          "internalType": "uint256",
          "name": "_listingPrice",
          "type": "uint256"
        }
      ],
      "name": "updateListingPrice",
      "outputs": [],
      "stateMutability": "payable",
      "type": "function",
      "payable": true
    },
    {
      "inputs": [],
      "name": "getListingPrice",
      "outputs": [
        {
          "internalType": "uint256",
          "name": "",
          "type": "uint256"
        }
      ],
      "stateMutability": "view",
      "type": "function",
      "constant": true
    },
    {
      "inputs": [
        {
          "internalType": "string",
          "name": "tokenURI",
          "type": "string"
        },
        {
          "internalType": "uint256",
          "name": "price",
          "type": "uint256"
        }
      ],
      "name": "createToken",
      "outputs": [
        {
          "internalType": "uint256",
          "name": "",
          "type": "uint256"
        }
      ],
      "stateMutability": "payable",
      "type": "function",
      "payable": true
    },
    {
      "inputs": [
        {
          "internalType": "uint256",
          "name": "tokenId",
          "type": "uint256"
        },
        {
          "internalType": "uint256",
          "name": "price",
          "type": "uint256"
        }
      ],
      "name": "resellToken",
      "outputs": [],
      "stateMutability": "payable",
      "type": "function",
      "payable": true
    },
    {
      "inputs": [
        {
          "internalType": "uint256",
          "name": "tokenId",
          "type": "uint256"
        }
      ],
      "name": "createMarketSale",
      "outputs": [],
      "stateMutability": "payable",
      "type": "function",
      "payable": true
    },
    {
      "inputs": [],
      "name": "fetchMarketItems",
      "outputs": [
        {
          "components": [
            {
              "internalType": "uint256",
              "name": "tokenId",
              "type": "uint256"
            },
            {
              "internalType": "address payable",
              "name": "seller",
              "type": "address"
            },
            {
              "internalType": "address payable",
              "name": "owner",
              "type": "address"
            },
            {
              "internalType": "uint256",
              "name": "price",
              "type": "uint256"
            },
            {
              "internalType": "bool",
              "name": "sold",
              "type": "bool"
            }
          ],
          "internalType": "struct NFTMarketplace.MarketItem[]",
          "name": "",
          "type": "tuple[]"
        }
      ],
      "stateMutability": "view",
      "type": "function",
      "constant": true
    },
    {
      "inputs": [],
      "name": "fetchMyNFTs",
      "outputs": [
        {
          "components": [
            {
              "internalType": "uint256",
              "name": "tokenId",
              "type": "uint256"
            },
            {
              "internalType": "address payable",
              "name": "seller",
              "type": "address"
            },
            {
              "internalType": "address payable",
              "name": "owner",
              "type": "address"
            },
            {
              "internalType": "uint256",
              "name": "price",
              "type": "uint256"
            },
            {
              "internalType": "bool",
              "name": "sold",
              "type": "bool"
            }
          ],
          "internalType": "struct NFTMarketplace.MarketItem[]",
          "name": "",
          "type": "tuple[]"
        }
      ],
      "stateMutability": "view",
      "type": "function",
      "constant": true
    },
    {
      "inputs": [],
      "name": "fetchItemsListed",
      "outputs": [
        {
          "components": [
            {
              "internalType": "uint256",
              "name": "tokenId",
              "type": "uint256"
            },
            {
              "internalType": "address payable",
              "name": "seller",
              "type": "address"
            },
            {
              "internalType": "address payable",
              "name": "owner",
              "type": "address"
            },
            {
              "internalType": "uint256",
              "name": "price",
              "type": "uint256"
            },
            {
              "internalType": "bool",
              "name": "sold",
              "type": "bool"
            }
          ],
          "internalType": "struct NFTMarketplace.MarketItem[]",
          "name": "",
          "type": "tuple[]"
        }
      ],
      "stateMutability": "view",
      "type": "function",
      "constant": true
    }
  ],
  "bytecode": "0x60806040526658d15e176280006009553480156200001c57600080fd5b50604080518082018252601081526f4d657461766572736520546f6b656e7360801b6020808301918252835180850190945260048452631351551560e21b9084015281519192916200007191600091620000a2565b50805162000087906001906020840190620000a2565b5050600a80546001600160a01b031916331790555062000184565b828054620000b09062000148565b90600052602060002090601f016020900481019282620000d457600085556200011f565b82601f10620000ef57805160ff19168380011785556200011f565b828001600101855582156200011f579182015b828111156200011f57825182559160200191906001019062000102565b506200012d92915062000131565b5090565b5b808211156200012d576000815560010162000132565b600181811c908216806200015d57607f821691505b6020821081036200017e57634e487b7160e01b600052602260045260246000fd5b50919050565b61230c80620001946000396000f3fe60806040526004361061012a5760003560e01c80636352211e116100ab578063ae677aa31161006f578063ae677aa314610313578063b88d4fde14610326578063be9af53614610346578063c87b56dd14610359578063e219fc7514610379578063e985e9c51461038c57600080fd5b80636352211e1461028b57806370a08231146102ab57806372b3b620146102cb57806395d89b41146102de578063a22cb465146102f357600080fd5b806312e85585116100f257806312e8558514610202578063202e37401461022157806323b872dd1461023657806342842e0e1461025657806345f8fa801461027657600080fd5b806301ffc9a71461012f57806306fdde0314610164578063081812fc14610186578063095ea7b3146101be5780630f08efe0146101e0575b600080fd5b34801561013b57600080fd5b5061014f61014a366004611cce565b6103d5565b60405190151581526020015b60405180910390f35b34801561017057600080fd5b50610179610427565b60405161015b9190611d43565b34801561019257600080fd5b506101a66101a1366004611d56565b6104b9565b6040516001600160a01b03909116815260200161015b565b3480156101ca57600080fd5b506101de6101d9366004611d8b565b610546565b005b3480156101ec57600080fd5b506101f561065b565b60405161015b9190611db5565b34801561020e57600080fd5b506009545b60405190815260200161015b565b34801561022d57600080fd5b506101f56107f2565b34801561024257600080fd5b506101de610251366004611e31565b6109c6565b34801561026257600080fd5b506101de610271366004611e31565b6109f7565b34801561028257600080fd5b506101f5610a12565b34801561029757600080fd5b506101a66102a6366004611d56565b610be6565b3480156102b757600080fd5b506102136102c6366004611e6d565b610c5d565b6102136102d9366004611f14565b610ce4565b3480156102ea57600080fd5b50610179610d26565b3480156102ff57600080fd5b506101de61030e366004611f6d565b610d35565b6101de610321366004611d56565b610d44565b34801561033257600080fd5b506101de610341366004611fa9565b610dbc565b6101de610354366004611d56565b610df4565b34801561036557600080fd5b50610179610374366004611d56565b610f59565b6101de610387366004612025565b6110cf565b34801561039857600080fd5b5061014f6103a7366004612047565b6001600160a01b03918216600090815260056020908152604080832093909416825291909152205460ff1690565b60006001600160e01b031982166380ac58cd60e01b148061040657506001600160e01b03198216635b5e139f60e01b145b8061042157506301ffc9a760e01b6001600160e01b03198316145b92915050565b6060600080546104369061207a565b80601f01602080910402602001604051908101604052809291908181526020018280546104629061207a565b80156104af5780601f10610484576101008083540402835291602001916104af565b820191906000526020600020905b81548152906001019060200180831161049257829003601f168201915b5050505050905090565b60006104c4826111c7565b61052a5760405162461bcd60e51b815260206004820152602c60248201527f4552433732313a20617070726f76656420717565727920666f72206e6f6e657860448201526b34b9ba32b73a103a37b5b2b760a11b60648201526084015b60405180910390fd5b506000908152600460205260409020546001600160a01b031690565b600061055182610be6565b9050806001600160a01b0316836001600160a01b0316036105be5760405162461bcd60e51b815260206004820152602160248201527f4552433732313a20617070726f76616c20746f2063757272656e74206f776e656044820152603960f91b6064820152608401610521565b336001600160a01b03821614806105da57506105da81336103a7565b61064c5760405162461bcd60e51b815260206004820152603860248201527f4552433732313a20617070726f76652063616c6c6572206973206e6f74206f7760448201527f6e6572206e6f7220617070726f76656420666f7220616c6c00000000000000006064820152608401610521565b61065683836111e4565b505050565b6060600061066860075490565b9050600061067560085490565b60075461068291906120ca565b90506000808267ffffffffffffffff8111156106a0576106a0611e88565b6040519080825280602002602001820160405280156106f957816020015b6040805160a0810182526000808252602080830182905292820181905260608201819052608082015282526000199092019101816106be5790505b50905060005b848110156107e95730600b60006107178460016120e1565b81526020810191909152604001600020600201546001600160a01b0316036107d75760006107468260016120e1565b6000818152600b6020908152604091829020825160a0810184528154815260018201546001600160a01b039081169382019390935260028201549092169282019290925260038201546060820152600482015460ff1615156080820152855192935090918590879081106107bc576107bc6120f9565b60209081029190910101526107d26001866120e1565b945050505b806107e18161210f565b9150506106ff565b50949350505050565b606060006107ff60075490565b905060008060005b838110156108615733600b600061081f8460016120e1565b81526020810191909152604001600020600201546001600160a01b03160361084f5761084c6001846120e1565b92505b806108598161210f565b915050610807565b5060008267ffffffffffffffff81111561087d5761087d611e88565b6040519080825280602002602001820160405280156108d657816020015b6040805160a08101825260008082526020808301829052928201819052606082018190526080820152825260001990920191018161089b5790505b50905060005b848110156107e95733600b60006108f48460016120e1565b81526020810191909152604001600020600201546001600160a01b0316036109b45760006109238260016120e1565b6000818152600b6020908152604091829020825160a0810184528154815260018201546001600160a01b039081169382019390935260028201549092169282019290925260038201546060820152600482015460ff161515608082015285519293509091859087908110610999576109996120f9565b60209081029190910101526109af6001866120e1565b945050505b806109be8161210f565b9150506108dc565b6109d03382611252565b6109ec5760405162461bcd60e51b815260040161052190612128565b61065683838361133b565b61065683838360405180602001604052806000815250610dbc565b60606000610a1f60075490565b905060008060005b83811015610a815733600b6000610a3f8460016120e1565b81526020810191909152604001600020600101546001600160a01b031603610a6f57610a6c6001846120e1565b92505b80610a798161210f565b915050610a27565b5060008267ffffffffffffffff811115610a9d57610a9d611e88565b604051908082528060200260200182016040528015610af657816020015b6040805160a081018252600080825260208083018290529282018190526060820181905260808201528252600019909201910181610abb5790505b50905060005b848110156107e95733600b6000610b148460016120e1565b81526020810191909152604001600020600101546001600160a01b031603610bd4576000610b438260016120e1565b6000818152600b6020908152604091829020825160a0810184528154815260018201546001600160a01b039081169382019390935260028201549092169282019290925260038201546060820152600482015460ff161515608082015285519293509091859087908110610bb957610bb96120f9565b6020908102919091010152610bcf6001866120e1565b945050505b80610bde8161210f565b915050610afc565b6000818152600260205260408120546001600160a01b0316806104215760405162461bcd60e51b815260206004820152602960248201527f4552433732313a206f776e657220717565727920666f72206e6f6e657869737460448201526832b73a103a37b5b2b760b91b6064820152608401610521565b60006001600160a01b038216610cc85760405162461bcd60e51b815260206004820152602a60248201527f4552433732313a2062616c616e636520717565727920666f7220746865207a65604482015269726f206164647265737360b01b6064820152608401610521565b506001600160a01b031660009081526003602052604090205490565b6000610cf4600780546001019055565b6000610cff60075490565b9050610d0b33826114d7565b610d15818561160a565b610d1f8184611695565b9392505050565b6060600180546104369061207a565b610d403383836117eb565b5050565b600a546001600160a01b03163314610db75760405162461bcd60e51b815260206004820152603060248201527f4f6e6c79206d61726b6574706c616365206f776e65722063616e20757064617460448201526f32903634b9ba34b73390383934b1b29760811b6064820152608401610521565b600955565b610dc63383611252565b610de25760405162461bcd60e51b815260040161052190612128565b610dee848484846118b9565b50505050565b6000818152600b6020526040902060038101546001909101546001600160a01b0316348214610e8d576040805162461bcd60e51b81526020600482015260248101919091527f506c65617365207375626d6974207468652061736b696e67207072696365206960448201527f6e206f7264657220746f20636f6d706c657465207468652070757263686173656064820152608401610521565b6000838152600b602052604090206002810180546001600160a01b0319908116331790915560048201805460ff1916600190811790915590910180549091169055610edc600880546001019055565b610ee730338561133b565b600a546009546040516001600160a01b039092169181156108fc0291906000818181858888f19350505050158015610f23573d6000803e3d6000fd5b506040516001600160a01b038216903480156108fc02916000818181858888f19350505050158015610dee573d6000803e3d6000fd5b6060610f64826111c7565b610fca5760405162461bcd60e51b815260206004820152603160248201527f45524337323155524953746f726167653a2055524920717565727920666f72206044820152703737b732bc34b9ba32b73a103a37b5b2b760791b6064820152608401610521565b60008281526006602052604081208054610fe39061207a565b80601f016020809104026020016040519081016040528092919081815260200182805461100f9061207a565b801561105c5780601f106110315761010080835404028352916020019161105c565b820191906000526020600020905b81548152906001019060200180831161103f57829003601f168201915b50505050509050600061107a60408051602081019091526000815290565b9050805160000361108c575092915050565b8151156110be5780826040516020016110a6929190612179565b60405160208183030381529060405292505050919050565b6110c7846118ec565b949350505050565b6000828152600b60205260409020600201546001600160a01b0316331461114b5760405162461bcd60e51b815260206004820152602a60248201527f4f6e6c79206974656d206f776e65722063616e20706572666f726d20746869736044820152691037b832b930ba34b7b760b11b6064820152608401610521565b600954341461116c5760405162461bcd60e51b8152600401610521906121a8565b6000828152600b6020526040902060048101805460ff19169055600381018290556001810180546001600160a01b0319908116331790915560029091018054909116301790556111bc60086119c3565b610d4033308461133b565b6000908152600260205260409020546001600160a01b0316151590565b600081815260046020526040902080546001600160a01b0319166001600160a01b038416908117909155819061121982610be6565b6001600160a01b03167f8c5be1e5ebec7d5bd14f71427d1e84f3dd0314c0f7b2291e5b200ac8c7c3b92560405160405180910390a45050565b600061125d826111c7565b6112be5760405162461bcd60e51b815260206004820152602c60248201527f4552433732313a206f70657261746f7220717565727920666f72206e6f6e657860448201526b34b9ba32b73a103a37b5b2b760a11b6064820152608401610521565b60006112c983610be6565b9050806001600160a01b0316846001600160a01b0316148061131057506001600160a01b0380821660009081526005602090815260408083209388168352929052205460ff165b806110c75750836001600160a01b0316611329846104b9565b6001600160a01b031614949350505050565b826001600160a01b031661134e82610be6565b6001600160a01b0316146113b25760405162461bcd60e51b815260206004820152602560248201527f4552433732313a207472616e736665722066726f6d20696e636f72726563742060448201526437bbb732b960d91b6064820152608401610521565b6001600160a01b0382166114145760405162461bcd60e51b8152602060048201526024808201527f4552433732313a207472616e7366657220746f20746865207a65726f206164646044820152637265737360e01b6064820152608401610521565b61141f6000826111e4565b6001600160a01b03831660009081526003602052604081208054600192906114489084906120ca565b90915550506001600160a01b03821660009081526003602052604081208054600192906114769084906120e1565b909155505060008181526002602052604080822080546001600160a01b0319166001600160a01b0386811691821790925591518493918716917fddf252ad1be2c89b69c2b068fc378daa952ba7f163c4a11628f55a4df523b3ef91a4505050565b6001600160a01b03821661152d5760405162461bcd60e51b815260206004820181905260248201527f4552433732313a206d696e7420746f20746865207a65726f20616464726573736044820152606401610521565b611536816111c7565b156115835760405162461bcd60e51b815260206004820152601c60248201527f4552433732313a20746f6b656e20616c7265616479206d696e746564000000006044820152606401610521565b6001600160a01b03821660009081526003602052604081208054600192906115ac9084906120e1565b909155505060008181526002602052604080822080546001600160a01b0319166001600160a01b03861690811790915590518392907fddf252ad1be2c89b69c2b068fc378daa952ba7f163c4a11628f55a4df523b3ef908290a45050565b611613826111c7565b6116765760405162461bcd60e51b815260206004820152602e60248201527f45524337323155524953746f726167653a2055524920736574206f66206e6f6e60448201526d32bc34b9ba32b73a103a37b5b2b760911b6064820152608401610521565b6000828152600660209081526040909120825161065692840190611c1c565b600081116116e55760405162461bcd60e51b815260206004820152601c60248201527f5072696365206d757374206265206174206c65617374203120776569000000006044820152606401610521565b60095434146117065760405162461bcd60e51b8152600401610521906121a8565b6040805160a08101825283815233602080830182815230848601818152606086018881526000608088018181528b8252600b909652979097209551865591516001860180546001600160a01b03199081166001600160a01b0393841617909155925160028701805490941691161790915593516003840155516004909201805460ff19169215159290921790915561179e918461133b565b604080513381523060208201529081018290526000606082015282907fb640004f1d14576d0c209e240cad0410e0d8c0c33a09375861fbadae2588a98d9060800160405180910390a25050565b816001600160a01b0316836001600160a01b03160361184c5760405162461bcd60e51b815260206004820152601960248201527f4552433732313a20617070726f766520746f2063616c6c6572000000000000006044820152606401610521565b6001600160a01b03838116600081815260056020908152604080832094871680845294825291829020805460ff191686151590811790915591519182527f17307eab39ab6107e8899845ad3d59bd9653f200f220920489ca2b5937696c31910160405180910390a3505050565b6118c484848461133b565b6118d084848484611a1a565b610dee5760405162461bcd60e51b8152600401610521906121ec565b60606118f7826111c7565b61195b5760405162461bcd60e51b815260206004820152602f60248201527f4552433732314d657461646174613a2055524920717565727920666f72206e6f60448201526e3732bc34b9ba32b73a103a37b5b2b760891b6064820152608401610521565b600061197260408051602081019091526000815290565b905060008151116119925760405180602001604052806000815250610d1f565b8061199c84611b1b565b6040516020016119ad929190612179565b6040516020818303038152906040529392505050565b805480611a125760405162461bcd60e51b815260206004820152601b60248201527f436f756e7465723a2064656372656d656e74206f766572666c6f7700000000006044820152606401610521565b600019019055565b60006001600160a01b0384163b15611b1057604051630a85bd0160e11b81526001600160a01b0385169063150b7a0290611a5e90339089908890889060040161223e565b6020604051808303816000875af1925050508015611a99575060408051601f3d908101601f19168201909252611a969181019061227b565b60015b611af6573d808015611ac7576040519150601f19603f3d011682016040523d82523d6000602084013e611acc565b606091505b508051600003611aee5760405162461bcd60e51b8152600401610521906121ec565b805181602001fd5b6001600160e01b031916630a85bd0160e11b1490506110c7565b506001949350505050565b606081600003611b425750506040805180820190915260018152600360fc1b602082015290565b8160005b8115611b6c5780611b568161210f565b9150611b659050600a836122ae565b9150611b46565b60008167ffffffffffffffff811115611b8757611b87611e88565b6040519080825280601f01601f191660200182016040528015611bb1576020820181803683370190505b5090505b84156110c757611bc66001836120ca565b9150611bd3600a866122c2565b611bde9060306120e1565b60f81b818381518110611bf357611bf36120f9565b60200101906001600160f81b031916908160001a905350611c15600a866122ae565b9450611bb5565b828054611c289061207a565b90600052602060002090601f016020900481019282611c4a5760008555611c90565b82601f10611c6357805160ff1916838001178555611c90565b82800160010185558215611c90579182015b82811115611c90578251825591602001919060010190611c75565b50611c9c929150611ca0565b5090565b5b80821115611c9c5760008155600101611ca1565b6001600160e01b031981168114611ccb57600080fd5b50565b600060208284031215611ce057600080fd5b8135610d1f81611cb5565b60005b83811015611d06578181015183820152602001611cee565b83811115610dee5750506000910152565b60008151808452611d2f816020860160208601611ceb565b601f01601f19169290920160200192915050565b602081526000610d1f6020830184611d17565b600060208284031215611d6857600080fd5b5035919050565b80356001600160a01b0381168114611d8657600080fd5b919050565b60008060408385031215611d9e57600080fd5b611da783611d6f565b946020939093013593505050565b602080825282518282018190526000919060409081850190868401855b82811015611e2457815180518552868101516001600160a01b03908116888701528682015116868601526060808201519086015260809081015115159085015260a09093019290850190600101611dd2565b5091979650505050505050565b600080600060608486031215611e4657600080fd5b611e4f84611d6f565b9250611e5d60208501611d6f565b9150604084013590509250925092565b600060208284031215611e7f57600080fd5b610d1f82611d6f565b634e487b7160e01b600052604160045260246000fd5b600067ffffffffffffffff80841115611eb957611eb9611e88565b604051601f8501601f19908116603f01168101908282118183101715611ee157611ee1611e88565b81604052809350858152868686011115611efa57600080fd5b858560208301376000602087830101525050509392505050565b60008060408385031215611f2757600080fd5b823567ffffffffffffffff811115611f3e57600080fd5b8301601f81018513611f4f57600080fd5b611f5e85823560208401611e9e565b95602094909401359450505050565b60008060408385031215611f8057600080fd5b611f8983611d6f565b915060208301358015158114611f9e57600080fd5b809150509250929050565b60008060008060808587031215611fbf57600080fd5b611fc885611d6f565b9350611fd660208601611d6f565b925060408501359150606085013567ffffffffffffffff811115611ff957600080fd5b8501601f8101871361200a57600080fd5b61201987823560208401611e9e565b91505092959194509250565b6000806040838503121561203857600080fd5b50508035926020909101359150565b6000806040838503121561205a57600080fd5b61206383611d6f565b915061207160208401611d6f565b90509250929050565b600181811c9082168061208e57607f821691505b6020821081036120ae57634e487b7160e01b600052602260045260246000fd5b50919050565b634e487b7160e01b600052601160045260246000fd5b6000828210156120dc576120dc6120b4565b500390565b600082198211156120f4576120f46120b4565b500190565b634e487b7160e01b600052603260045260246000fd5b600060018201612121576121216120b4565b5060010190565b60208082526031908201527f4552433732313a207472616e736665722063616c6c6572206973206e6f74206f6040820152701ddb995c881b9bdc88185c1c1c9bdd9959607a1b606082015260800190565b6000835161218b818460208801611ceb565b83519083019061219f818360208801611ceb565b01949350505050565b60208082526024908201527f5072696365206d75737420626520657175616c20746f206c697374696e6720706040820152637269636560e01b606082015260800190565b60208082526032908201527f4552433732313a207472616e7366657220746f206e6f6e20455243373231526560408201527131b2b4bb32b91034b6b83632b6b2b73a32b960711b606082015260800190565b6001600160a01b038581168252841660208201526040810183905260806060820181905260009061227190830184611d17565b9695505050505050565b60006020828403121561228d57600080fd5b8151610d1f81611cb5565b634e487b7160e01b600052601260045260246000fd5b6000826122bd576122bd612298565b500490565b6000826122d1576122d1612298565b50069056fea264697066735822122042e35451edeee9b82c2279ab9e3003aa5619db7b5bda7eac60a1e896ff0c570564736f6c634300080e0033",
  "immutableReferences": {},
  "source": "// SPDX-License-Identifier: MIT\r\npragma solidity ^0.8.4;\r\n\r\nimport \"@openzeppelin/contracts/utils/Counters.sol\";\r\nimport \"@openzeppelin/contracts/token/ERC721/extensions/ERC721URIStorage.sol\";\r\nimport \"@openzeppelin/contracts/token/ERC721/ERC721.sol\";\r\n\r\ncontract NFTMarketplace is ERC721URIStorage {\r\n    using Counters for Counters.Counter;\r\n    Counters.Counter private _tokenIds;\r\n    Counters.Counter private _itemsSold;\r\n\r\n    uint256 listingPrice = 0.025 ether;\r\n    address payable owner;\r\n\r\n    mapping(uint256 => MarketItem) private idToMarketItem;\r\n\r\n    struct MarketItem {\r\n      uint256 tokenId;\r\n      address payable seller;\r\n      address payable owner;\r\n      uint256 price;\r\n      bool sold;\r\n    }\r\n\r\n    event MarketItemCreated (\r\n      uint256 indexed tokenId,\r\n      address seller,\r\n      address owner,\r\n      uint256 price,\r\n      bool sold\r\n    );\r\n\r\n    constructor() ERC721(\"Metaverse Tokens\", \"METT\") {\r\n      owner = payable(msg.sender);\r\n    }\r\n\r\n    /* Updates the listing price of the contract */\r\n    function updateListingPrice(uint _listingPrice) public payable {\r\n      require(owner == msg.sender, \"Only marketplace owner can update listing price.\");\r\n      listingPrice = _listingPrice;\r\n    }\r\n\r\n    /* Returns the listing price of the contract */\r\n    function getListingPrice() public view returns (uint256) {\r\n      return listingPrice;\r\n    }\r\n\r\n    /* Mints a token and lists it in the marketplace */\r\n    function createToken(string memory tokenURI, uint256 price) public payable returns (uint) {\r\n      _tokenIds.increment();\r\n      uint256 newTokenId = _tokenIds.current();\r\n\r\n      _mint(msg.sender, newTokenId);\r\n      _setTokenURI(newTokenId, tokenURI);\r\n      createMarketItem(newTokenId, price);\r\n      return newTokenId;\r\n    }\r\n\r\n    function createMarketItem(\r\n      uint256 tokenId,\r\n      uint256 price\r\n    ) private {\r\n      require(price > 0, \"Price must be at least 1 wei\");\r\n      require(msg.value == listingPrice, \"Price must be equal to listing price\");\r\n\r\n      idToMarketItem[tokenId] =  MarketItem(\r\n        tokenId,\r\n        payable(msg.sender),\r\n        payable(address(this)),\r\n        price,\r\n        false\r\n      );\r\n\r\n      _transfer(msg.sender, address(this), tokenId);\r\n      emit MarketItemCreated(\r\n        tokenId,\r\n        msg.sender,\r\n        address(this),\r\n        price,\r\n        false\r\n      );\r\n    }\r\n\r\n    /* allows someone to resell a token they have purchased */\r\n    function resellToken(uint256 tokenId, uint256 price) public payable {\r\n      require(idToMarketItem[tokenId].owner == msg.sender, \"Only item owner can perform this operation\");\r\n      require(msg.value == listingPrice, \"Price must be equal to listing price\");\r\n      idToMarketItem[tokenId].sold = false;\r\n      idToMarketItem[tokenId].price = price;\r\n      idToMarketItem[tokenId].seller = payable(msg.sender);\r\n      idToMarketItem[tokenId].owner = payable(address(this));\r\n      _itemsSold.decrement();\r\n\r\n      _transfer(msg.sender, address(this), tokenId);\r\n    }\r\n\r\n    /* Creates the sale of a marketplace item */\r\n    /* Transfers ownership of the item, as well as funds between parties */\r\n    function createMarketSale(\r\n      uint256 tokenId\r\n      ) public payable {\r\n      uint price = idToMarketItem[tokenId].price;\r\n      address seller = idToMarketItem[tokenId].seller;\r\n      require(msg.value == price, \"Please submit the asking price in order to complete the purchase\");\r\n      idToMarketItem[tokenId].owner = payable(msg.sender);\r\n      idToMarketItem[tokenId].sold = true;\r\n      idToMarketItem[tokenId].seller = payable(address(0));\r\n      _itemsSold.increment();\r\n      _transfer(address(this), msg.sender, tokenId);\r\n      payable(owner).transfer(listingPrice);\r\n      payable(seller).transfer(msg.value);\r\n    }\r\n\r\n    /* Returns all unsold market items */\r\n    function fetchMarketItems() public view returns (MarketItem[] memory) {\r\n      uint itemCount = _tokenIds.current();\r\n      uint unsoldItemCount = _tokenIds.current() - _itemsSold.current();\r\n      uint currentIndex = 0;\r\n\r\n      MarketItem[] memory items = new MarketItem[](unsoldItemCount);\r\n      for (uint i = 0; i < itemCount; i++) {\r\n        if (idToMarketItem[i + 1].owner == address(this)) {\r\n          uint currentId = i + 1;\r\n          MarketItem storage currentItem = idToMarketItem[currentId];\r\n          items[currentIndex] = currentItem;\r\n          currentIndex += 1;\r\n        }\r\n      }\r\n      return items;\r\n    }\r\n\r\n    /* Returns only items that a user has purchased */\r\n    function fetchMyNFTs() public view returns (MarketItem[] memory) {\r\n      uint totalItemCount = _tokenIds.current();\r\n      uint itemCount = 0;\r\n      uint currentIndex = 0;\r\n\r\n      for (uint i = 0; i < totalItemCount; i++) {\r\n        if (idToMarketItem[i + 1].owner == msg.sender) {\r\n          itemCount += 1;\r\n        }\r\n      }\r\n\r\n      MarketItem[] memory items = new MarketItem[](itemCount);\r\n      for (uint i = 0; i < totalItemCount; i++) {\r\n        if (idToMarketItem[i + 1].owner == msg.sender) {\r\n          uint currentId = i + 1;\r\n          MarketItem storage currentItem = idToMarketItem[currentId];\r\n          items[currentIndex] = currentItem;\r\n          currentIndex += 1;\r\n        }\r\n      }\r\n      return items;\r\n    }\r\n\r\n    /* Returns only items a user has listed */\r\n    function fetchItemsListed() public view returns (MarketItem[] memory) {\r\n      uint totalItemCount = _tokenIds.current();\r\n      uint itemCount = 0;\r\n      uint currentIndex = 0;\r\n\r\n      for (uint i = 0; i < totalItemCount; i++) {\r\n        if (idToMarketItem[i + 1].seller == msg.sender) {\r\n          itemCount += 1;\r\n        }\r\n      }\r\n\r\n      MarketItem[] memory items = new MarketItem[](itemCount);\r\n      for (uint i = 0; i < totalItemCount; i++) {\r\n        if (idToMarketItem[i + 1].seller == msg.sender) {\r\n          uint currentId = i + 1;\r\n          MarketItem storage currentItem = idToMarketItem[currentId];\r\n          items[currentIndex] = currentItem;\r\n          currentIndex += 1;\r\n        }\r\n      }\r\n      return items;\r\n    }\r\n}",
  "sourcePath": "D:\\Projects\\Solidity\\src\\contracts\\NFTMarket.sol",
  "compiler": {
    "name": "solc",
    "version": "0.8.14+commit.80d49f37.Emscripten.clang"
  },
  "schemaVersion": "3.4.6",
  "updatedAt": "2022-06-07T05:09:57.957Z",
  "networkType": "ethereum",
  "devdoc": {
    "kind": "dev",
    "methods": {
      "approve(address,uint256)": {
        "details": "See {IERC721-approve}."
      },
      "balanceOf(address)": {
        "details": "See {IERC721-balanceOf}."
      },
      "getApproved(uint256)": {
        "details": "See {IERC721-getApproved}."
      },
      "isApprovedForAll(address,address)": {
        "details": "See {IERC721-isApprovedForAll}."
      },
      "name()": {
        "details": "See {IERC721Metadata-name}."
      },
      "ownerOf(uint256)": {
        "details": "See {IERC721-ownerOf}."
      },
      "safeTransferFrom(address,address,uint256)": {
        "details": "See {IERC721-safeTransferFrom}."
      },
      "safeTransferFrom(address,address,uint256,bytes)": {
        "details": "See {IERC721-safeTransferFrom}."
      },
      "setApprovalForAll(address,bool)": {
        "details": "See {IERC721-setApprovalForAll}."
      },
      "supportsInterface(bytes4)": {
        "details": "See {IERC165-supportsInterface}."
      },
      "symbol()": {
        "details": "See {IERC721Metadata-symbol}."
      },
      "tokenURI(uint256)": {
        "details": "See {IERC721Metadata-tokenURI}."
      },
      "transferFrom(address,address,uint256)": {
        "details": "See {IERC721-transferFrom}."
      }
    },
    "version": 1
  },
  "userdoc": {
    "kind": "user",
    "methods": {},
    "version": 1
  }
}